:1000000012C019C018C017C016C015C014C013C044
:1000100012C011C010C00FC00EC00DC00CC00BC06C
:100020000AC009C008C011241FBECFE5D4E0DEBF5E
:10003000CDBF02D026C0E4CF80E582B98FEF81BB6F
:1000400081B387BB80EF82BB84EC86BF06B607FE18
:10005000FDCF80E782BB81B1887F803631F081B1EE
:1000600090E0887F907082BBFFCF84EC86BF94ECD9
:1000700096BF06B607FEFDCF83B188BBF9CF82BB22
:06008000FFCFF894FFCF52
:00000001FF
